:100000000C9434000C9446000C9446000C9446006A
:100010000C9446000C9446000C9446000C94460048
:100020000C9446000C9446000C9446000C94460038
:100030000C9446000C9446000C9446000C94460028
:100040000C9446000C9446000C94A5000C944600B9
:100050000C9446000C9446000C9446000C94460008
:100060000C9446000C94460011241FBECFEFD8E03C
:10007000DEBFCDBF21E0A0E0B1E001C01D92A13004
:10008000B207E1F70E94CA000C940E020C94000023
:10009000EAE7F0E0808187608083ACE7B0E08C9194
:1000A00080648C938C9180628C9380818062808349
:1000B0008081806880838081806480838FE99FE075
:1000C0000197F1F700C0000008951092C50087E67F
:1000D0008093C400E0ECF0E080818D7F808388E92C
:1000E0008093C10086E08093C20008959091C00083
:1000F00095FFFCCF8093C6000895EF92FF920F9377
:100100001F93CF93DF938C01109200017C0128E0B4
:10011000E20EF11CE80189910E947600CE15DF0500
:10012000D1F78FEF99E628E1815090402040E1F728
:1001300000C00000809100018F3F61F7DF91CF91F7
:100140001F910F91FF90EF9008951F920F920FB69D
:100150000F9211248F938091C600809300018F919C
:100160000F900FBE0F901F901895FC01DC011196A7
:10017000AC014A5F5F4F90E02D91922728E087E025
:10018000990F08F498272A95D9F7A417B507A1F76E
:1001900096830895CF93DF93CDB7DEB728970FB638
:1001A000F894DEBF0FBECDBF0E9465000E944800DC
:1001B000789480E3898381E08A8381E198E4A1E8EF
:1001C000BFE38B839C83AD83BE838FEF8F8380E2FD
:1001D00088876091790070E080E090E00E941501CE
:1001E00020E030E040EA5CE30E94500120E030E093
:1001F00048EC52E40E9450016B837C838D839E8384
:10020000CE0101960E94B500CE0101960E947D00AC
:100210002AEA36EE86E991E0215030408040904055
:10022000D9F70000D6CFE89409C097FB3EF490952B
:100230008095709561957F4F8F4F9F4F9923A9F0BF
:10024000F92F96E9BB279395F6958795779567954E
:10025000B795F111F8CFFAF4BB0F11F460FF1BC092
:100260006F5F7F4F8F4F9F4F16C0882311F096E925
:1002700011C0772321F09EE8872F762F05C06623D3
:1002800071F096E8862F70E060E02AF09A95660F8C
:10029000771F881FDAF7880F9695879597F9089545
:1002A0000E9463010C94D4010E94C60138F00E94A0
:1002B000CD0120F0952311F00C94BD010C94C301E5
:1002C00011240C9408020E94E50170F3959FC1F37C
:1002D000950F50E0551F629FF001729FBB27F00DF4
:1002E000B11D639FAA27F00DB11DAA1F649F662749
:1002F000B00DA11D661F829F2227B00DA11D621F98
:10030000739FB00DA11D621F839FA00D611D221F51
:10031000749F3327A00D611D231F849F600D211D35
:10032000822F762F6A2F11249F5750409AF0F1F0B8
:1003300088234AF0EE0FFF1FBB1F661F771F881F21
:1003400091505040A9F79E3F510580F00C94BD019B
:100350000C9408025F3FE4F3983ED4F386957795BA
:100360006795B795F795E7959F5FC1F7FE2B880FC7
:10037000911D9695879597F9089597F99F6780E85D
:1003800070E060E008959FEF80EC089500240A94E7
:100390001616170618060906089500240A94121660
:1003A0001306140605060895092E0394000C11F493
:1003B000882352F0BB0F40F4BF2B11F460FF04C040
:1003C0006F5F7F4F8F4F9F4F089557FD9058440F99
:1003D000551F59F05F3F71F04795880F97FB991FA4
:1003E00061F09F3F79F08795089512161306140661
:1003F000551FF2CF4695F1DF08C0161617061806EE
:10040000991FF1CF86957105610508940895E894C8
:10041000BB2766277727CB0197F90895F894FFCF7C
:00000001FF
